:100200000C9404030C942C030C942C030C942C03DA
:100210000C942C030C942C030C942C030C942C03A2
:100220000C942C030C942C030C942C030C942C0392
:100230000C942C030C942C030C942C030C942C0382
:100240000C942C030C942C030C942C030C942C0372
:100250000C942C030C942C030C942C030C942C0362
:100260000C942C030C942C030C942C030C942C0352
:100270000C942C030C942C030C942C030C942C0342
:100280000C942C030C942C030C942C030C942C0332
:100290000C94701B0C94FA1B0C94D41B0C942C0320
:1002A000626F61726420636F6E74726F6C006D6F49
:1002B000746F7220636F6E74726F6C00736574205C
:1002C0006D6F746F7220737065656400736176651D
:1002D0002064617461736574006368616E67652092
:1002E000706172616D657465720077726974652002
:1002F0006461746173657400726561642064617423
:1003000061736574006C6F6164206461746173650E
:1003100074006D6F646520636F6E74726F6C00455E
:1003200072726F7220636F6465206973206E6F74E0
:1003300020617661696C61626C65202D3E002C2025
:1003400065787065637465643A2030780073686915
:10035000656C64206661696C656420746F20636FEE
:100360006E6669726D207375636365737366756C11
:1003700020636F6D6D616E64202D3E20616E73771A
:1003800065723A2030780074686520676976656E1A
:1003900020626F6172646E7220697320696E76618B
:1003A0006C6964202D3E0074686520676976656E0F
:1003B00020706172616D6574657220697320696E69
:1003C00076616C6964202D3E20006661696C65640D
:1003D000003B2000706172616D6574657220696E0A
:1003E00064657820697320696E76616C6964202D7C
:1003F0003E20007468652064617461736574206ECA
:10040000756D6265722077617320696E76616C69C3
:1004100064202D3E20003B20416E737765723A20A8
:100420000020746F20006661696C6564202D3E2099
:1004300066726F6D20006D6F646520636F756C640C
:10044000206E6F742062652072656164006E6F7447
:1004500020617661696C61626C65003B2072656346
:10046000763A2000636865636B73756D20646F6511
:1004700073206E6F74206D61746368202D3E20635D
:10048000616C633A2000616374696F6E2063616E12
:100490006E6F7420626520706572666F726D656440
:1004A00020696E20626F6F746C6F61646572005DAD
:1004B0003B20005D3B20416374696F6E5B005741D8
:1004C000524E494E473A20426F6172645B005D00B4
:1004D0005D3B20416E737765725B005D3B20436F2F
:1004E0006D6D616E645B005741524E494E473A2034
:1004F000426F6172645B00494E464F3A2053656E0D
:1005000064696E67207265736574207265717565C4
:10051000737420746F20616C6C20626F61726473FD
:1005200000494E464F3A20446F6E6520696E6974EB
:1005300069616C697A696E670020776173207375F1
:10054000636365737366756C6C7920696E69746931
:10055000616C697A656400494E464F3A20426F618A
:1005600072642000494E464F3A2053746172746998
:100570006E6720696E697469616C697A6174696F0C
:100580006E00494E464F3A206D6F64652063686186
:100590006E676520636F6D706C657465202D3E20FD
:1005A00000494E464F3A206D6F746F72207370652C
:1005B0006564206368616E676520636F6D706C654C
:1005C0007465202D3E2000426F6172643A20416CB8
:1005D0006C3B200073746F70007374617274004917
:1005E0004E464F3A206D6F746F72206D6F646520B8
:1005F0006368616E676520636F6D706C65746520FC
:100600002D3E2000611C431C11241FBECFEFCDBF27
:10061000DFE3DEBF18E2A0E0B8E2E5EEF4E502C0F9
:1006200005900D92A631B107D9F729E2A6E1B8E20B
:1006300001C01D92A039B207E1F713E0C3E0D3E097
:1006400004C02197FE010E947726C230D107C9F766
:100650000E94FB1C0C9457290C940001CF93DF934C
:10066000EC01FA013296E60FF71FDC019D012C1B0D
:100670003D0BCF01861B970B4D91442311F0419305
:10068000F5CFAC01421B530B640F751FFB01329772
:10069000308361507109FB012083DF91CF91089570
:1006A00080912B2990912C29009711F480E02FC084
:1006B000DC01ED91FC910688F789E02D09952091E8
:1006C0004E2930914F2981111FC0232B79F78DEFCF
:1006D0009FEF80934E2990934F2980912B299091E1
:1006E0002C29DC01ED91FC910680F781E02D099524
:1006F00080912B2990912C29DC01ED91FC910488AB
:10070000F589E02D0995D2CF81E0232B79F6089564
:100710000895EF92FF920F931F93CF93DF937C0185
:10072000EB018B01040F151FC017D10759F0D7013A
:10073000ED91FC910480F581E02D6881C701099558
:100740008993F2CFDF91CF911F910F91FF90EF909E
:1007500008950F931F93CF93DF93EC018B0180914A
:10076000C008E881F9810480F581E02D86FD13C081
:10077000612FCE010995182FE881F9810480F58158
:10078000E02D602FCE010995082FC801DF91CF9190
:100790001F910F910895CE010995082FE881F981E5
:1007A0000480F581E02D612FCE010995182FEDCF42
:1007B00000006093C4088091C30887FFFCCF80913C
:1007C000C40808958F929F92AF92BF92CF92DF920A
:1007D000EF92FF920F931F93CF93DF93FC018085DD
:1007E000882319F081FF0EC07894DF91CF911F917B
:1007F0000F91FF90EF90DF90CF90BF90AF909F90C0
:100800008F90089580FFF1CF82849384A484B5846F
:10081000C12CD12C760110E09401A501B601C701CD
:10082000A0E00E949A2699F1217030E040E050E06B
:1008300060E070E080E090E00E949A26D9F0D0E07D
:10084000C0E0103370F4C12FC695C695C69580E2FE
:10085000C89FE0011124C05FDB4F812F8770C80F54
:10086000D11DCF01810F911DDC0152968C91988191
:10087000892B88839401A501B601C70101E00E947C
:100880007F2649015A016B017C011F5FC5CF868419
:100890009784A088B188C12CD12C760110E29401F4
:1008A000A501B601C701A0E00E949A2609F49DCFD8
:1008B000217030E040E050E060E070E080E090E0E7
:1008C0000E949A26D9F0D0E0C0E0103370F4C12F16
:1008D000C695C695C695B0E2CB9FE0011124C05FD6
:1008E000DB4F812F8770C80FD11DCF01810F911D64
:1008F000DC0152968C919881892B88839401A50103
:10090000B601C70101E00E947F2649015A016B012F
:100910007C011F5FC4CFFC016F3F710581F18085B1
:1009200081FD2DC0603271055CF581E090E002C070
:10093000880F991F6A95E2F780959095092E000C13
:10094000AA0BBB0B4285538564857585842395234B
:10095000A623B72382879387A487B587828593854B
:10096000A485B585892B8A2B8B2B49F486859785A1
:10097000A089B189892B8A2B8B2B09F410860895C5
:100980006052710981E090E002C0880F991F6A955A
:10099000E2F780959095092E000CAA0BBB0B4685BB
:1009A00057856089718984239523A623B723868779
:1009B0009787A08BB18BD2CFFC016F3F7105E9F116
:1009C000603371051CF082E0808708958085816026
:1009D000808760327105C4F481E090E002C0880F26
:1009E000991F6A95E2F7092E000CAA0BBB0B4285F2
:1009F000538564857585842B952BA62BB72B828711
:100A00009387A487B58708956052710981E090E0CB
:100A100002C0880F991F6A95E2F7092E000CAA0BF5
:100A2000BB0B4685578560897189842B952BA62B36
:100A3000B72B86879787A08BB18B0895E0ECF8E001
:100A400020812E7F2083FC0117820895E0ECF8E0DE
:100A500082818E7F82830895E0ECF8E0828181605C
:100A600082830895FC0154894589252F30E0842F25
:100A700090E0821B930B541710F0CF9608950197C6
:100A80000895FC0192898389981761F0A389AE0FBC
:100A9000BF2FB11D59968C9193899F5F9F73938B44
:100AA00090E008958FEF9FEF0895FC01928983896C
:100AB000981731F08389E80FF11D818D90E008953A
:100AC0008FEF9FEF0895FC0192892389892F90E091
:100AD000805C9F4F821B91098F7399270895CF9354
:100AE000DF93EC01E881F9810680F781E02D09951B
:100AF000EC85FD8586818F738683EC85FD858581F8
:100B00008F7585838B898A8B198ADF91CF910895A0
:100B1000CF93DF93FC0194898589C485D58598138B
:100B200006C08D818F7D8D83DF91CF910895A5893A
:100B3000AE0FBF2FB11DA75ABF4F2C91858990E0F2
:100B400001968F739927858B80E48C83A485B58566
:100B500012962C93948985899813E6CFA485B58540
:100B600015968C9115978F7D15968C938789882380
:100B7000D9F2808D80931301178AD6CFDC011C96A1
:100B8000ED91FC910FB607FE03C0258125FD04C041
:100B9000248125FD0C9488050895EF92FF920F9310
:100BA0001F93CF93DF93EC0181E0898B9C898D8922
:100BB00098131CC0AC85BD8514968C91149785FF45
:100BC00015C012966C93AC85BD8580E414968C9309
:100BD000EC85FD8585818F7D858381E090E0DF91C7
:100BE000CF911F910F91FF90EF9008958091110187
:100BF00080FF08C080911301888F8E898093130134
:100C000081E08F8BF62E0C8910E00F5F1F4F0F7362
:100C10001127E02E8D898E1104C0CE010E94BE05E1
:100C2000F9CFEC89EC0FFD2FF11DE75AFF4FF08251
:100C30000C8BEC85FD8585818062CECF0F931F9351
:100C4000CF93DF938C01D0E0C0E0F801EC0FFD1FE3
:100C50006491662341F086E798E20E94CD05892BD6
:100C600011F02196F2CFCE01DF91CF911F910F911C
:100C70000895CF93DF93FC0121892223C9F0EC0171
:100C80008091110180FF08C080911301808F8689B7
:100C90008093130181E0878BEC85FD85858185FD3F
:100CA00003C0848186FD04C0CE010E94BE05F4CF3E
:100CB000DF91CF910895CF93DF9390E0FC01EE5A3E
:100CC000FC4620812F3F71F0FC01E75DFC46A081CE
:100CD00030E2A39FD0011124BC5F6130710529F47B
:100CE00011962C93DF91CF91089580509D46EC0191
:100CF000E881EF3F89F0CD014096E80FF92FF11D13
:100D00009FB7F89412962C9380816230710539F464
:100D1000886080839FBFE6CFF0E0E0E0F1CF877F7F
:100D2000F8CF282F30E0F901E952FD46E081EE23AB
:100D300009F1E13021F0F0F0E63098F008954091AB
:100D4000010A20503D46F90120812C5F81E090E0AE
:100D500001C0880F2A95EAF7809584238093010AC1
:100D6000089580E1E89FF0011124E05AF54F818158
:100D70008F7E81830895FF920F931F93CF93DF930C
:100D8000082F10E0F801EE5AFC46F0809FEFF916AC
:100D9000A1F0EB01893210F40E949106F801E75DA1
:100DA000FC46E08180E2E89FF0011124FC5F808135
:100DB0008F2159F0CD2B39F4F682DF91CF911F911D
:100DC0000F91FF900895F582F8CFD801A050BD464D
:100DD0008C91309771F08F3F61F07096E80FF11DA4
:100DE0009FB7F8948081CD2B39F4877F80839FBF94
:100DF000E4CFF0E0E0E0F4CF8860F8CF893210F47F
:100E00000C94BB0608950F931F93CF93DF938C012F
:100E100070E060E084E00E94BB0670E060E085E086
:100E20000E94BB0670E060E086E00E94BB0670E0B6
:100E300060E087E00E94BB06CBE8D1E0CE010197DD
:100E4000F1F7B8018CE298E20E94A903CE01019764
:100E5000F1F761E070E084E00E94BB0661E070E0C1
:100E600085E00E94BB0661E070E086E00E94BB0660
:100E700061E070E087E00E94BB062197F1F7DF9107
:100E8000CF911F910F9108950F931F93CF93082F28
:100E900010E0F801EE5AFC46C081CF3FB9F089322C
:100EA00010F40E949106F801E75DFC46E08180E2C3
:100EB000E89FF0011124FC5F8085C82381E090E069
:100EC00009F480E0CF911F910F91089580E090E0A8
:100ED000F9CF893210F40C945B060895CF92DF921B
:100EE000EF92FF920F931F93CF93DF93EC016A0170
:100EF0007B01022F8989882339F0E881F9810288F2
:100F0000F389E02DCE01099598898091E205892B1E
:100F10008093E2051FB7F89460E070E281EA97E001
:100F2000A70196010E94322669017A018FEFC81A43
:100F3000D80AE80AF80AF694E794D794C794EC859F
:100F4000FD8586818D7F8683EC85FD858681868300
:100F5000198AA09123110A2E000CBB0BA701960140
:100F60000E94F92520E034E040E050E00E94CF25C7
:100F7000EC85FD85C20ED31EE41EF51EC086D1860B
:100F8000EC85FD850783EC85FD858681806C8683F5
:100F9000EC85FD858581806885838E8562E070E0C3
:100FA0000E9469078F8561E070E00E94FE068F85D0
:100FB00061E070E00E9469071FBFDF91CF911F9130
:100FC0000F91FF90EF90DF90CF900895CF93DF9334
:100FD0008FB7F8942091272830912828409129280C
:100FE00050912A28E091BA0A9091B60A90FF06C063
:100FF0002F5F3F4F4F4F5F4FE091BA0A8FBFA091D5
:101000002528B0912628C0912328D09124280E9419
:10101000EE25EC9F9001ED9F300D1124620F731FA0
:10102000811D911DDF91CF9108958F929F92AF9274
:10103000BF92CF92DF92EF92FF924B015C010E9430
:10104000E6076B017C01A8EEB3E0A50194010E94C4
:10105000EE25C60ED71EE81EF91EC616D706E806F0
:10106000F90618F40E94E607F8CF0E94E6076C150F
:101070007D058E059F05C8F3FF90EF90DF90CF9020
:10108000BF90AF909F908F9008952FB7F894609184
:101090001F287091202880912128909122282FBF0D
:1010A0000895EF92FF920F931F93CF93DF9300D099
:1010B00000D0CDB7DEB7FA0120E08E010F5F1F4FE1
:1010C0009E2F9F77EE0FEF2FEE1FFF0BF1953097BE
:1010D00009F09068D801A20FB11D9C932F5F309743
:1010E00079F730E0FB01E21BF30B8483FB01E21B89
:1010F000F30B3596D801CD01801B910B8217930716
:101100001CF48D918193F7CF2F5F3F4F80912B2956
:1011100090912C298901040F151F621B730B6B5FC3
:101120007F4FDC01ED91FC910280F381E02DA8015D
:1011300009957C010E9445086093372970933829EE
:101140008093392990933A2981E00E151F0509F003
:1011500080E02496CDBFDEBFDF91CF911F910F912C
:10116000FF90EF9008958F929F92AF92BF92CF928F
:10117000DF92EF92FF92CF93DF93EC010E9445083C
:101180004B015C0180912B2990912C29DC01ED9180
:10119000FC910084F185E02D0995892BB9F40E941A
:1011A00045086B017C01C818D908EA08FB082091A2
:1011B000332930913429A8EEB3E00E945426C61694
:1011C000D706E806F906F0F280E00DC080912B29E1
:1011D00090912C29DC01ED91FC910284F385E02DA6
:1011E0000995888381E0DF91CF91FF90EF90DF90A8
:1011F000CF90BF90AF909F908F9008952F923F9285
:101200004F925F926F927F928F929F92AF92BF9216
:10121000CF92DF92EF92FF920F931F93CF93DF93C2
:10122000CDB7DEB72A97CDBFDEBF1C0180912D2937
:1012300090912E290E94B308811119C060E070E0DE
:10124000CB012A96CDBFDEBFDF91CF911F910F91C9
:10125000FF90EF90DF90CF90BF90AF909F908F90D6
:101260007F906F905F904F903F902F900895E09106
:101270002D29F0912E29D0801982EE24E394F12CAF
:10128000812C912C5401412C512C32014394CE01DC
:1012900001960E94B308882389F287010F5F1F4FD0
:1012A0008981E0912D29F0912E29EE0DFF1D80837B
:1012B000E981AE2FAF77B0E0A30192010E94EE2545
:1012C000860E971EA81EB91E37E0440C551C661CDE
:1012D000771C3A95D1F7E7FD3FC0BD2DB07FBE83A7
:1012E0008FEF800FF1018083B03309F04CC0809103
:1012F0002D2990912E29800F911F0E94B3088823D9
:1013000009F49CCF20912D2930912E29C7010296F6
:10131000820F931F0E94B308882309F48FCF0E5FBA
:101320001F4FE0912D29F0912E29D1018C91DF01E1
:10133000A80FB11D11968C91119790E0982F8827D6
:1013400012962C91820F911D208121FD0296F2E0D0
:10135000E0E030E020E01DC078010530110509F023
:1013600096CF8FEF9FEF80934E2990934F298091D6
:101370002B2990912C29DC01ED91FC910488F589B1
:10138000E02D09955BCFF0E0E0E030E020E090E078
:1013900080E070E060E0CF2EDE2EE32EF22E2801FA
:1013A0003B014C185D086E087F084A825B826C82A4
:1013B0007D822C01712C612C4F82588669867A8639
:1013C0004A805B806C807D804C0C5D1C6E1C7F1C99
:1013D000C814D904EA04FB0408F046C0CE01019603
:1013E0000E94B308882309F429CF80914C29909159
:1013F0004D29009711F12E812033F9F4D1012C9160
:101400004EEF5FEF6FEF7FEF421B510961097109EA
:10141000440E551E661E771E2F81388549855A85D4
:10142000241535054605570540F4DC01ED91FC9186
:101430000190F081E02D6981099580912F2990918B
:1014400030290817190750F48981E0912D29F0916E
:101450002E29E00FF11F80830F5F1F4FBFEFCB1AC4
:10146000DB0AEB0AFB0AACCF80914C2990914D2905
:10147000892B69F480912F2990913029B0E0A0E068
:1014800084159505A605B70510F410E000E0B80135
:1014900090E080E0D6CEAF92BF92CF92DF92EF92F3
:1014A000FF920F931F93CF93DF936C017B018B010E
:1014B000040F151FEB015E01AE18BF08C017D1075E
:1014C00059F06991D601ED91FC910190F081E02DE8
:1014D000C6010995892B79F7C501DF91CF911F913D
:1014E0000F91FF90EF90DF90CF90BF90AF90089555
:1014F00081E00895EF92FF920F931F93CF93DF93B4
:101500008C01CBE8D1E0CE010197F1F770E060E00B
:10151000F80181810E94FE06CE010197F1F770E08B
:1015200060E08CE298E20E94A9037C012197F1F728
:1015300061E070E0F80181810E94FE06C701DF9141
:10154000CF911F910F91FF90EF900895EF92FF922E
:101550000F931F93CF93DF938C017B0170E060E0CA
:10156000FC0181810E94FE06CBE8D1E0CE0101970B
:10157000F1F7B7018CE298E20E94A903CE0101972E
:10158000F1F761E070E0F80181810E94FE06219789
:10159000F1F7DF91CF911F910F91FF90EF90089598
:1015A000CF92DF92EF92FF92CF93C82F0E9445080F
:1015B0006B017C01809102288932C8F40E944407A3
:1015C000892BA9F0CC23B1F30E9445086C197D0941
:1015D0008E099F09603177428105910558F7E091A6
:1015E0001529F0911629309729F30995E3CFCF916A
:1015F000FF90EF90DF90CF900895CF93DF931F92ED
:10160000CDB7DEB7898369818CE298E20F90DF91D4
:10161000CF910C94D803CF93DF93D82FC62F80EEB1
:101620000E94FD0A8D2F0E94FD0A8C2F0E94FD0A48
:10163000C11105C08EEEDF91CF910C94FD0ADF91B0
:10164000CF910895DF92EF92FF920F931F93CF9364
:10165000DF93D82EE92E8B01F42E812F0E94FD0AF4
:10166000802F0E94FD0ACD2DDE2D0C0F1D1FC017EF
:10167000D10721F089910E94FD0AF9CF81E0F8128B
:101680000AC08EEEDF91CF911F910F91FF90EF90E6
:10169000DF900C94FD0ADF91CF911F910F91FF9085
:1016A000EF90DF900895DF92EF92FF920F931F93D8
:1016B000CF93DF937C01C62FD42E862F0E94FD0A84
:1016C0008701D0E0C8018E199F098C179D0734F45B
:1016D000F80181918F010E94FD0AF4CFF1E0DF1241
:1016E0000AC08EEEDF91CF911F910F91FF90EF9086
:1016F000DF900C94FD0ADF91CF911F910F91FF9025
:10170000EF90DF900895CF93DF93EC018FEF0E946D
:10171000FD0A8883DF91CF910895CF93DF931F92C5
:10172000CDB7DEB71982CE0101960E94830B898165
:101730000F90DF91CF910895CF93DF93C9EED3E05F
:101740000E948D0B8F3E69F0219711F0803EC1F70A
:1017500021E090E0803E09F020E0822FDF91CF91E0
:1017600008958FEF9FEFFACFCF92DF92EF92FF9223
:101770000F931F93CF93DF931F92CDB7DEB7182F30
:101780006B017A0119820E949C0B892B61F490E015
:1017900080E00F90DF91CF911F910F91FF90EF901C
:1017A000DF90CF900895CE0101960E94830B1068C0
:1017B00089811813ECCFCE0101960E94830B898199
:1017C000813029F78FEF0E94FD0AF701808310E036
:1017D00000E0F70180818017110649F044F0C6014E
:1017E000800F911F0E94830B0F5F1F4FF2CFCE011E
:1017F00001960E94830B81E090E0CBCF61E070E026
:10180000809101280E94FE068CE298E20C94E2038B
:1018100021E0FC0184858F3F09F420E0822F0895A8
:101820000895FC0167870895CF93DF931F92CDB78A
:10183000DEB76983DC01ED91FC910280F381E02D3C
:1018400041E050E0BE016F5F7F4F09950F90DF913F
:10185000CF910895EF92FF920F931F93CF93DF9351
:10186000EC018B017A010E944508688B798B8A8B89
:101870009B8B8C819D81DC01ED91FC910280F38139
:10188000E02DA701B801DF91CF911F910F91FF903B
:10189000EF9009941F93CF93DF93EC01162F0E94D2
:1018A0004508688B798B8A8B9B8B8C819D81DC01B1
:1018B000ED91FC910190F081E02D612FDF91CF91AE
:1018C0001F910994089590E080E00895DC01ED9166
:1018D000FC910088F189E02D23E030E009940C941C
:1018E000EF27CF92DF92EF92FF920F93FC01C12C72
:1018F000B9E0DB2EBDE3EB2EF12CC082D182E28277
:10190000F3821482158281E090E086839783C090F1
:101910000328D0900428E0900528F0900628F6943B
:10192000E794D794C79490E04C155D056E057F054C
:1019300040F4F694E794D794C7949F5F9630A1F74C
:1019400097E004600187892F8095A82FA170B0E0EF
:1019500084E0AA0FBB1F8A95E1F791629A2B80E081
:10196000232B09F480E4982B90870F91FF90EF9040
:10197000DF90CF9008950F931F93CF93DF93CDB750
:10198000DEB72A97CDBFDEBF8C01FC0187818111B4
:101990000CC010861186128613861486158616864C
:1019A0001786108A118A81E087838091E305F80108
:1019B0009681892B8093E30561E070E083810E942A
:1019C000690761E070E0F80184810E9469078091F5
:1019D000C10884608093C1088091C00881628093AF
:1019E000C00840916E2850916F28609170287091C6
:1019F0007128009172282091742830917528CE01A9
:101A000001960E94710C99858A859093C0088093F5
:101A1000C1082A96CDBFDEBFDF91CF911F910F91F4
:101A20000895CF9383E28093012884E28093022873
:101A3000C1E0C09316288DE18093002861E070E03A
:101A400083E20E945B0670E060E084E20E94690726
:101A500061E070E08DE10E94690761E070E08CE177
:101A60000E945B0661E070E08CE10E94BB0661E0D1
:101A700070E083E20E94FE0661E070E08DE10E946A
:101A8000FE066AE070E080E090E00E94150870E0D9
:101A900060E08DE10E94FE066EEE72E080E090E074
:101AA0000E94150870E060E08CE10E94BB0670E0C7
:101AB00060E08CE10E945B068CE298E20E94BB0C25
:101AC000C0932B28CF9108955F926F927F928F924F
:101AD0009F92AF92BF92CF92DF92EF92FF920F93BD
:101AE0001F93CF93DF93CDB7DEB76297CDBFDEBF35
:101AF0003C010B871C872D873E87042F4F87588B0F
:101B0000698B7A8B29893A894B855C856D857E85C1
:101B1000CE0101960E94710C59841A85D301189642
:101B20008C91882319F081FF18C0F8945092C00856
:101B30001093C1086296CDBFDEBFDF91CF911F9198
:101B40000F91FF90EF90DF90CF90BF90AF909F905C
:101B50008F907F906F905F90089580FFE7CFF301A3
:101B600082849384A484B584C12CD12C7601B0E006
:101B70009401A501B601C701A0E00E949A26A9F12F
:101B8000217030E040E050E060E070E080E090E004
:101B90000E949A26E9F090E080E0B03370F48B2F39
:101BA000869586958695F0E28F9FC0011124805F0F
:101BB0009B4F2B2F2770820F911DFC0140819301B9
:101BC0002B0F311DF901428BFC012081287F2083DE
:101BD0009401A501B601C70101E00E947F264901D9
:101BE0005A016B017C01BF5FC3CFD3011E968D905C
:101BF0009D90AD90BC905197C12CD12C7601B0E254
:101C00009401A501B601C701A0E00E949A2609F43B
:101C10008DCF217030E040E050E060E070E080E087
:101C200090E00E949A26E9F090E080E0B03370F4F2
:101C30008B2F869586958695E0E28E9FC0011124B4
:101C4000805F9B4F2B2F2770820F911DFC014081DD
:101C500093012B0F311DF901428BFC012081287F5C
:101C600020839401A501B601C70101E00E947F26EF
:101C700049015A016B017C01BF5FC2CFCF92DF9255
:101C8000EF92FF920F931F93CF93DF93CDB7DEB701
:101C90002897CDBFDEBF80E0082F1D821E8281E025
:101CA000682F12E12AE730E040E05E8170E08CE2CC
:101CB00098E20E94640D70E060E0809101280E942B
:101CC000FE060E9445086B017C0180910228893242
:101CD000B8F00E9445086C197D098E099F0965308E
:101CE00071058105910588F32896CDBFDEBFDF9190
:101CF000CF911F910F91FF90EF90DF90CF900895BB
:101D00000E944407019781F3E4CFCF92DF92EF92D4
:101D1000FF920F931F93CF93DF93CDB7DEB7289732
:101D2000CDBFDEBF6C01162FF42EE52E2F83088762
:101D300019821A821B821C8280912B28811102C079
:101D40000E94110D80E00E94D00A0E943E0E65E0C4
:101D50008DE20E940B0B40E0612FC6010E94530BE5
:101D600040E064E0CE0101960E94530B82E00E94A5
:101D7000FD0A8E2D0E94FD0A8F2D0E94FD0A40E073
:101D800061E0CE0107960E94530B41E061E0CE0175
:101D900008960E94530B012F10E0C80141968370F2
:101DA00099270F5F1F4F892B19F00E948D0BF5CFDC
:101DB0000E94FE0B81E09885943009F080E00E943B
:101DC000D00A0E943E0E1E821D82AE014B5F5F4F05
:101DD000BE016A5F7F4F8DE20E94B40B0E94FE0B32
:101DE0002896CDBFDEBFDF91CF911F910F91FF905D
:101DF000EF90DF90CF900895CF92DF92EF92FF9215
:101E00000F931F93CF93DF9300D000D0CDB7DEB7F1
:101E10007C0186E08E9D80018F9D100D1124005B5A
:101E2000164DF80184819581892B09F08CC0808141
:101E30009181892B59F480E490E00E945327F801A6
:101E400082839383808391831482158280E490E05F
:101E500089839A8386E08E9DF0018F9DF00D112479
:101E6000E05BF64DC080D180EC828CE10E9444079B
:101E7000892B09F468C080912B28811102C00E942F
:101E8000110D80E00E94D00A0E943E0E62E085E4BF
:101E90000E940B0B40E061E070E0CE0104960E94CE
:101EA000220B41E062E070E0CE0101960E94220B1D
:101EB0000E948D0B0E94FE0B80E00E94D00A0E94BF
:101EC0003E0E1B820E949C0B892B49F1CE0103968A
:101ED0000E94830B8B81853C11F50E948D0B88231A
:101EE000D1F08FEF0E94FD0A182F8FEF0E94FD0A9C
:101EF000912F89839A83860129813A81C8018C199F
:101F00009D098217930738F48FEF0E94FD0AF801AC
:101F100081938F01F1CFCE0103960E94830B0E9423
:101F2000FE0B89819A81009771F026E02E9DF001C9
:101F30002F9DF00D1124E05BF64D2081318122832D
:101F400033838483958386E08E9DF0018F9DF00D11
:101F50001124E05BF64D848195812496CDBFDEBFD0
:101F6000DF91CF911F910F91FF90EF90DF90CF9075
:101F70000895CF92DF92EF92FF920F931F93CF932A
:101F8000DF937C016B018A010E94FC0E0097F9F03F
:101F9000801791070CF48C0186E08E9DE0018F9DE7
:101FA000D00D1124C05BD64D6A817B81A801C6018A
:101FB0000E9435298A819B81800F911F8A839B8390
:101FC0008C819D81801B910B8C839D83C801DF9147
:101FD000CF911F910F91FF90EF90DF90CF900895D8
:101FE000FC01848590E00C94B90F0F931F93CF935D
:101FF000DF931F92CDB7DEB78C01DC01ED91FC9130
:102000000084F185E02D0995892B91F0F8018485F4
:1020100041E050E0BE016F5F7F4F90E00E94B90F3A
:10202000898190E00F90DF91CF911F910F910895DA
:102030008FEF9FEFF7CFCF93DF93FC01C485D0E004
:10204000CE010E94FC0E892B81F086E08C9FF0016E
:102050008D9FF00D1124E05BF64D0280F381E02DA1
:10206000808190E0DF91CF9108958FEF9FEFFACFBD
:10207000FC0184858F3F19F090E00C94FC0E90E0F9
:1020800080E00895CF93DF9300D0CDB7DEB7809185
:102090002B28811102C00E94110D80E00E94D00AFD
:1020A0000E943E0E60E080E20E940B0B0E94FE0B3D
:1020B00080E00E94D00A0E943E0E8FEF89831A8230
:1020C000AE014E5F5F4FBE016F5F7F4F80E20E94A7
:1020D000B40B0E94FE0B89810F900F90DF91CF917E
:1020E00008955F926F927F928F929F92AF92BF926C
:1020F000CF92DF92EF92FF920F931F93CF93DF93D4
:10210000CDB7DEB72897CDBFDEBF888719821A8288
:102110001B821C826A837B834D835E8380912B2884
:10212000811102C00E94110D80E00E94D00A0E941D
:102130003E0E61E08AE30E940B0B41E061E0CE01BC
:1021400008960E94530B0E948D0B0E948D0B0E94DB
:10215000FE0B80E00E94D00A0E943E0E1F820E9469
:102160009C0B892BE9F1CE0107960E94830B8F818E
:102170008A3BB1F50E948D0B582E882389F18E0180
:102180000F5F1F4FB12CA12C682E712CA614B70421
:1021900004F58FEF0E94FD0AF8018083F12CE12CF9
:1021A000C82ED12CEC14FD0474F4F80181809280C7
:1021B0008E0C9F1C8FEF0E94FD0AF4018083FFEFBD
:1021C000EF1AFF0AEFCF8FEFA81AB80A0D5F1F4F63
:1021D000DDCFE2E05E1204C0CE0107960E94830BC1
:1021E0000E94FE0B2896CDBFDEBFDF91CF911F91DD
:1021F0000F91FF90EF90DF90CF90BF90AF909F90A6
:102200008F907F906F905F900895CF93DF93CDB7BD
:10221000DEB72697CDBFDEBF19821A821B821C82D1
:102220001D821E82AE014B5F5F4FBE016F5F7F4F0D
:10223000FC0184850E9471108D8190E0982F882781
:102240002E81820F911D2696CDBFDEBFDF91CF91EB
:1022500008950F931F93CF93DF93CDB7DEB72697E3
:10226000CDBFDEBF8C01FB0119821A821B821C824A
:102270001D821E82AE014B5F5F4FBE016F5F7F4FBD
:1022800084850E94711087EB93E9F8018083918324
:1022900089819A81AB81BC8182839383A483B58336
:1022A000C8012696CDBFDEBFDF91CF911F910F9160
:1022B0000895CF93DF9300D0CDB7DEB780912B2860
:1022C000811102C00E94110D80E00E94D00A0E947C
:1022D0003E0E60E08FE30E940B0B0E94FE0B80E03D
:1022E0000E94D00A0E943E0E8FEF89831A82AE01AF
:1022F0004E5F5F4FBE016F5F7F4F8FE30E94B40B55
:102300000E94FE0B89810F900F90DF91CF9108956D
:10231000CF92DF92EF92FF920F931F93CF93DF93B1
:1023200000D000D0CDB7DEB78C837B018A018091CD
:102330002B28811102C00E94110D80E00E94D00A5A
:102340000E943E0E62E084E40E940B0B40E061E0DC
:1023500070E0CE0104960E94220B41E0B801C70153
:102360000E94220B075F1F4FC80183709927892B9A
:1023700029F00E948D0B0F5F1F4FF6CF0E94FE0BBE
:1023800080E00E94D00A0E943E0E19821A821B82AF
:102390000E949C0B892B31F1CE0103960E94830B86
:1023A0008B81843CF9F40E948D0B8823B9F08FEF68
:1023B0000E94FD0A9E012F5F3F4F69018901E82EAF
:1023C000F12CC8018C199D098E159F053CF48FEFE7
:1023D0000E94FD0AF80181938F01F3CFCE0103968D
:1023E0000E94830B0E94FE0B89819A812496CDBFA7
:1023F000DEBFDF91CF911F910F91FF90EF90DF90A3
:10240000CF900895CF92DF92EF92FF920F931F9398
:10241000CF93DF93222379F06A017B018C01C5E021
:10242000D0E0A601B701F80184850E9488110097C9
:1024300021F42197B1F790E080E0DF91CF911F91D7
:102440000F91FF90EF90DF90CF900895CF93DF939F
:1024500000D01F92CDB7DEB78B8380912B288111DE
:1024600002C00E94110D80E00E94D00A0E943E0E20
:1024700061E08FE20E940B0B41E061E0CE01039628
:102480000E94530B0E948D0B0E948D0B0E94FE0B2D
:1024900080E00E94D00A0E943E0E19821A82AE018C
:1024A0004E5F5F4FBE016F5F7F4F8FE20E94B40BA4
:1024B0000E94FE0B89812396CDBFDEBFDF91CF91B5
:1024C00008950F931F93CF93DF93FC0124852F3F33
:1024D00009F1EC010190F081E02D0084F185E02DFF
:1024E0000995892B31F081E0DF91CF911F910F91F8
:1024F00008958C858F3F81F40C85F6E00F9F800155
:102500001124005B164DF80180819181009779F4C8
:102510008FEF8C8780E0E8CF0E942612843060F332
:102520009BEF980F933040F38A30E9F6E5CF0E9495
:10253000EF27F80112821382108211821482158211
:10254000E7CFCF93DF9300D01F92CDB7DEB78B8359
:1025500080912B28811102C00E94110D80E00E9401
:10256000D00A0E943E0E61E08EE20E940B0B41E019
:1025700061E0CE0103960E94530B0E948D0B0E94D6
:102580008D0B0E94FE0B80E00E94D00A0E943E0E3E
:1025900019821A82AE014E5F5F4FBE016F5F7F4F9F
:1025A0008EE20E94B40B0E94FE0B2396CDBFDEBFCD
:1025B000DF91CF9108950F931F93CF93DF93FC0189
:1025C00084858F3F69F18F010E94A112C2E3D0E0A0
:1025D000F80184858F3F69F00E942612882349F014
:1025E000219739F064E670E080E090E00E941508E1
:1025F000EFCFF801C485F6E0CF9FE0011124C05B66
:10260000D64D88819981009741F00E94EF271A8268
:102610001B82188219821C821D828FEFF801848729
:10262000DF91CF911F910F910895FF920F931F9308
:10263000CF93DF93CDB7DEB72897CDBFDEBF6B83D7
:102640007C838D839E83142FF52E2F8308878091A2
:102650002B28811102C00E94110D80E00E94D00A37
:102660000E943E0E64E08DE20E940B0B40E064E0AD
:10267000CE0103960E94530B82E00E94FD0A8F2D2B
:102680000E94FD0A812F0E94FD0A40E061E0CE0118
:1026900007960E94530B41E061E0CE0108960E942C
:1026A000530B0E94FE0B80E00E94D00A0E943E0E57
:1026B00019821A82AE014E5F5F4FBE016F5F7F4F7E
:1026C0008DE20E94B40B0E94FE0B2896CDBFDEBFA8
:1026D000DF91CF911F910F91FF900895CF92DF92DC
:1026E000EF92FF920F931F93CF93DF9300D01F922F
:1026F000CDB7DEB76C018B017A01DC011C968C91A1
:102700008F3FA1F481E090E0F6018283938310E093
:1027100000E0C8012396CDBFDEBFDF91CF911F91AE
:102720000F91FF90EF90DF90CF90089541155105E4
:1027300049F30E948811009709F06AC0D6011F96DC
:102740008C911F9781110CC0F60184850E94A11203
:1027500081E090E0D60112968D939C931397D7CF8A
:10276000ED91FC9102A0F3A1E02D21E0A701B801B9
:10277000C60109958C01892B39F3F60184858B8379
:102780001A821982F12CE12C80912B28811102C030
:102790000E94110D80E00E94D00A0E943E0E61E06E
:1027A0008AE20E940B0B41E061E0CE0103960E9499
:1027B000530B0E948D0B0E948D0B0E94FE0B80E03C
:1027C0000E94D00A0E943E0EAE014F5F5F4FBE01D5
:1027D0006E5F7F4F8AE20E94B40B0E94FE0B8A81DB
:1027E000811118C0FFEFEF1AFF0A64E670E080E085
:1027F00090E00E9415088A81811104C089E1E816E1
:10280000F10410F2A9E1EA16F10409F47BCF81CFBB
:102810008C01B3CFF12CE12CEECFFB010190002015
:10282000E9F73197AF01461B570BDC01ED91FC91A5
:102830000280F381E02D09948F929F92AF92BF9214
:10284000EF92FF920F931F93CF93DF93CDB7DEB735
:10285000A197CDBFDEBF7C01FA01CB0119A22230C6
:1028600008F42AE08E010F5D1F4F822E912CB12CAF
:10287000A12CBF01A50194010E943226F901CA01D1
:102880006A30F4F4605DD8016E938D01232B242B04
:10289000252B79F790E080E0109721F0BD01C7016A
:1028A0000E940D14A196CDBFDEBFDF91CF911F9185
:1028B0000F91FF90EF90BF90AF909F908F900895F1
:1028C000695CE1CF262FAC0170E060E086E798E21A
:1028D0000C941C14CF92DF92EF92FF92CF93DF9370
:1028E0006B017C016DE286E798E20E94CD05EC0168
:1028F00044275527BA014C195D096E097F092AE062
:1029000086E798E20E941C148C0F9D1FDF91CF91E7
:10291000FF90EF90DF90CF9008958F929F92AF92AB
:10292000BF92CF92DF92EF92FF920F931F93CF93BC
:10293000DF937C01EB016C0182E0C80ED11C4701E2
:10294000E5E08E0E911C10E000E0F60141916F0170
:1029500050E070E060E02AE0CE010E941C145C01AF
:10296000E881F9810190F081E02D6EE2CE010995B8
:102970008A0D9B1D080F191FC814D90431F7F701E0
:10298000458150E070E060E02AE0CE010E941C1416
:10299000800F911FDF91CF911F910F91FF90EF90CA
:1029A000DF90CF90BF90AF909F908F900895009749
:1029B00029F0BC0186E798E20C940D1490E080E0C9
:1029C000089563EF73E90C940D14CF93DF930E9485
:1029D0001E06EC0186E798E20E94E1148C0F9D1F11
:1029E000DF91CF910895EF92FF920F931F93CF93B2
:1029F000DF938C01EB010E94A60A8BE891E001971E
:102A0000F1F7C8010E947A0A7C01CE01905F8E1511
:102A10009F0561F187EE94E00E941E06F801408157
:102A200050E070E060E02AE086E798E20E941C1423
:102A30008BED94E00E941E0660E170E0CE010E94E2
:102A4000621480ED94E00E941E0660E170E0C70110
:102A50000E9462148EEC94E00E94E51480E0DF9105
:102A6000CF911F910F91FF90EF90089581E0F7CFE4
:102A7000CF93DF930E946214EC0186E798E20E94F4
:102A8000E1148C0F9D1FDF91CF9108950F931F9339
:102A9000CF93DF938C01D0E0C0E06115710519F090
:102AA0000E940D14EC01C8010E94E1148C0F9D1FBF
:102AB000DF91CF911F910F910895AF92BF92CF9266
:102AC000DF92EF92FF920F93CF93DF93EC017B01A4
:102AD0005A018C858F3F39F0E881F9810488F589A6
:102AE000E02DCE0109950E945911282F8C878F3F28
:102AF00009F43FC0F701628173818481958104E00C
:102B0000A5010E9415130E9445086B017C01E88114
:102B1000F9810688F789E02DCE010995811112C04F
:102B20000E9445086C197D098E099F096031774222
:102B30008105910538F461E070E080E090E00E944A
:102B40001508E5CFE881F9810688F789E02DCE01E7
:102B5000099521E090E0811101C020E0822FDF91F2
:102B6000CF910F91FF90EF90DF90CF90BF90AF90FB
:102B7000089566EF73E986E798E20E94461580E0C3
:102B800090E0EDCFAF92BF92CF92DF92EF92FF92A3
:102B90000F93CF93DF93EC017B015A018C858F3F1C
:102BA00039F0E881F9810488F589E02DCE01099595
:102BB0000E945911282F8C878F3F09F43FC0F701DD
:102BC000628173818481958102E0A5010E941513C1
:102BD0000E9445086B017C01E881F9810688F7892C
:102BE000E02DCE010995811112C00E9445086C1993
:102BF0007D098E099F09603177428105910538F47E
:102C000061E070E080E090E00E941508E5CFE88187
:102C1000F9810688F789E02DCE01099521E090E041
:102C2000811101C020E0822FDF91CF910F91FF90A1
:102C3000EF90DF90CF90BF90AF90089566EF73E96B
:102C400086E798E20E94461580E090E0EDCFAF92D3
:102C5000BF92CF92DF92EF92FF920F93CF93DF93C9
:102C6000EC017B015A018C858F3F39F0E881F981B5
:102C70000488F589E02DCE0109950E945911282F6D
:102C80008C878F3F09F43FC0F70162817381848193
:102C9000958100E0A5010E9415130E9445086B0173
:102CA0007C01E881F9810688F789E02DCE0109953C
:102CB000811112C00E9445086C197D098E099F0977
:102CC000603177428105910538F461E070E080E081
:102CD00090E00E941508E5CFE881F9810688F78920
:102CE000E02DCE01099521E090E0811101C020E0A6
:102CF000822FDF91CF910F91FF90EF90DF90CF90D7
:102D0000BF90AF90089566EF73E986E798E20E945E
:102D1000461580E090E0EDCFCF92DF92EF92FF92E8
:102D20000F931F93CF93DF93DC011896ED91FC91E5
:102D30002081222309F47AC0C42E8B01EC018EEB92
:102D400094E00E941E06D12CF12CE12C2AE0B70160
:102D5000A60186E798E20E941C1483EB94E00E948F
:102D60001E060115B5E01B0709F450C088F50115D2
:102D7000A2E01A0709F444C0F8F40115114009F45F
:102D80003CC08FEA94E00E941E06E885F985E08148
:102D9000E150EB3008F0E9C0F0E0EF52F94E0C944E
:102DA00077260F171F17361739173C176B1776172B
:102DB0008A178D179017A0170115A3E01A0719F1AC
:102DC0008AEE92E001151440E1F60E941E06D9CF6A
:102DD000011587E01807E9F030F48CEC92E001155A
:102DE000164099F3CECF011588E01807A9F080EAC4
:102DF00092E00115194049F3C4CF82E193E0E5CF99
:102E000085E093E0E2CF88EF92E0DFCF89ED92E0BA
:102E1000DCCF8CEB92E0D9CF8EEA92E0D6CF86E879
:102E200094E00E94E514E885F9851082DF91CF9146
:102E30001F910F91FF90EF90DF90CF90089584E65F
:102E400094E00E941E06E885F9856AE070E08181C1
:102E500092810E9462148BE594E00E941E06E88530
:102E6000F9856AE070E08381948132C08DE494E05A
:102E7000D8CF86E394E0D5CF86E294E00E941E0688
:102E8000E885F9850180F281E02DEE0FFF1FE15307
:102E9000FD46808191810E94D71481E294E00E94D6
:102EA0001E06E885F9850380F481E02DEE0FFF1FF3
:102EB000E153FD46808191810E94D71486E194E020
:102EC0000E941E06E885F98560E170E085819681A3
:102ED0000E943815A8CF83EF93E00E941E06E88574
:102EE000F9856AE070E081819281F2CF84ED93E010
:102EF0000E941E06E885F9850180F281E02DEE0F23
:102F0000FF1FE153FD46808191810E94D71481ED1E
:102F100093E0A3CF8AEC93E084CF87EA93E0DDCF00
:102F200087E893E00E941E062AE0B701A60186E723
:102F300098E20E941C1486E798E20E94E11473CF85
:102F40008DE493E00E941E06E885F98560E170E05B
:102F5000818192810E9462148EE393E00E941E069A
:102F6000E885F98560E170E07ECF8FE193E00E9413
:102F70001E06E885F985408150E070E060E02AE0B7
:102F8000D6CF7F928F929F92AF92BF92CF92DF92D5
:102F9000EF92FF920F931F93CF93DF938C01E62E56
:102FA000FC0192845C01F12CC62ED12CF8EFDF1AC3
:102FB00088E0882E772473949F14F9F0F501C1916D
:102FC000D1915F018B81882331F08A8181110BC0FF
:102FD000EE81FF817082F3944F2D60E078E0C801AC
:102FE0000E948C16E9CFB601CE010E94F314811124
:102FF000F2CFEE81FF818082EECFF80183858823B6
:10300000E9F08FED95E00E941E0687EC95E00E94A6
:103010001E0689ED95E0EE2011F084ED95E0DF913C
:10302000CF911F910F91FF90EF90DF90CF90BF90C5
:10303000AF909F908F907F900C94E514DF91CF918B
:103040001F910F91FF90EF90DF90CF90BF90AF90C6
:103050009F908F907F9008952F923F924F925F9212
:103060006F927F928F929F92AF92BF92CF92DF9298
:10307000EF92FF920F931F93CF93DF938C012A015E
:103080003B01FC01C2847C01D12C88E0382E222433
:103090002394CD1479F1F701C191D1917F018B81F6
:1030A000882331F08A8181110BC0EE81FF8120825B
:1030B000D3944D2D60E077E0C8010E948C16E9CFD3
:1030C00060E077E0CE010E94A60AC301B2010E942F
:1030D00013274B01CE010E94A60ACE010E947A0A54
:1030E0008115974121F0EE81FF813082E1CF8C8202
:1030F0009D82DECFF8018385882309F4BFC081EA71
:1031000095E00E941E0687EC95E00E941E06A30132
:103110009201C301B2010E944E276AE074E9811155
:103120001AC053014201E894B7F82FEF3FEF4FE781
:103130005FE7C501B4010E944E27811126C02FEF21
:103140003FEF4FE75FE7C501B4010E94AB241816BB
:10315000E4F46EE074E986E798E20E940D1486E7D5
:1031600098E2DF91CF911F910F91FF90EF90DF9048
:10317000CF90BF90AF909F908F907F906F905F9017
:103180004F903F902F900C94E1142FEF3FEF4FE7BB
:103190005FE4C301B2010E94492718161CF462E1E2
:1031A00074E9D9CF2FEF3FEF4FE75FECC301B201D6
:1031B0000E94AB2487FDF3CF20E030E0A901C301DA
:1031C000B2010E94AB2487FF09C06DE286E798E256
:1031D0000E94CD0577FA709477F870942AE037ED65
:1031E00043EA5BE3C301B2010E94A7262B013C0125
:1031F0000E941A274B015C010E94B0249B01AC0184
:10320000C301B2010E94A6262B013C012AE0B501B0
:10321000A40186E798E20E941C146AE974E986E733
:1032200098E20E940D1420E030E040E251E4C30136
:10323000B2010E9411252B013C010E941A274B016B
:103240006AE070E0C4010E946214B40190E080E082
:103250000E94B0249B01AC01C301B2010E94A626CA
:1032600020E030E040E251E40E9411250E941A273C
:10327000CB016AE070E00E94621471CFDF91CF91C0
:103280001F910F91FF90EF90DF90CF90BF90AF9084
:103290009F908F907F906F905F904F903F902F9076
:1032A0000895DF92EF92FF920F931F93CF93DF93D6
:1032B0007B018A0186E194E90E94D714E7010E0D93
:1032C0001F1D0C171D0709F44CC06CE374E986E759
:1032D00098E20E944615699186E798E20E94CD0522
:1032E00086E798E20E94E114FE013197D080ED2C30
:1032F0000D2C000CFF088AE294E90E94D7144D2D92
:10330000DD0C550B660B770B77FF19C0CB01BA01AB
:103310000E946A1486E798E20E94E11481E3E816AD
:10332000F10499F461E070E089E10E94FE0660E03A
:1033300080911728909118280E94C117C2CF2AE0C7
:1033400086E798E20E941C14E5CF80E3E816F104BA
:1033500009F0B7CF70E060E089E10E94FE0661E00D
:10336000E7CFDF91CF911F910F91FF90EF90DF900A
:103370000895CF92DF92EF92FF920F93CF93DF9356
:10338000EC017B016A018C858F3F39F0E881F9817E
:103390000488F589E02DCE0109950E9459118C878A
:1033A0008F3F09F442C0F70101900020E9F73197FF
:1033B000BF016E197F0904E0282FA601C7010E94F2
:1033C000850E0E9445086B017C01E881F981068821
:1033D000F789E02DCE010995811112C00E944508A0
:1033E0006C197D098E099F0960317742810591052D
:1033F00038F461E070E080E090E00E941508E5CFCD
:10340000E881F9810688F789E02DCE01099521E050
:1034100090E0811101C020E0822FDF91CF910F91C8
:10342000FF90EF90DF90CF90089566EF73E986E705
:1034300098E20E94461580E090E0EFCFCF92DF92B5
:10344000EF92FF920F93CF93DF93EC017B016A0120
:103450008C858F3F39F0E881F9810488F589E02D6A
:10346000CE0109950E9459118C878F3F09F442C003
:10347000F70101900020E9F73197BF016E197F092C
:1034800002E0282FA601C7010E94850E0E94450870
:103490006B017C01E881F9810688F789E02DCE0176
:1034A0000995811112C00E9445086C197D098E0989
:1034B0009F09603177428105910538F461E070E041
:1034C00080E090E00E941508E5CFE881F981068848
:1034D000F789E02DCE01099521E090E0811101C02E
:1034E00020E0822FDF91CF910F91FF90EF90DF903E
:1034F000CF90089566EF73E986E798E20E9446153B
:1035000080E090E0EFCF8F929F92AF92BF92CF92E8
:10351000DF92EF92FF920F931F93CF93DF93CDB77C
:10352000DEB72B97CDBFDEBF7C015B016A018091C6
:103530002B28811102C00E94110D80E00E94D00A48
:103540000E943E0E61E084E30E940B0BF5010190A6
:103550000020E9F73197BF016A197B0941E0C501F5
:103560000E94530BD5010D900020E9F78D010A1937
:103570001B090C5F1F4FC80183709927892B29F005
:103580000E948D0B0F5F1F4FF6CF0E94FE0B80E055
:103590000E94D00A0E943E0E1F821982AE014F5F28
:1035A0005F4FBE01695F7F4F84E30E94B40B182F09
:1035B0000E94FE0B112319F08F81813019F090E0E9
:1035C00080E056C08FEF8B838C838D838E838091B8
:1035D0002B28811102C00E94110D80E00E94D00AA8
:1035E0000E943E0E60E085E30E940B0B0E94FE0BE2
:1035F00080E00E94D00A0E943E0E1B86AE01455F0D
:103600005F4FBE01695F7F4F85E30E94B40B8C0161
:10361000812C912C5401892B91F08F809884A9845E
:10362000BA8491E080E04B815C816D817E81481598
:1036300059056A057B0509F490E0092F182F0E94AF
:10364000FE0B012B09F4BBCFD701ED91FC91068451
:10365000F785E02D87EB93E989839A838B829C829F
:10366000AD82BE82A601BE016F5F7F4FC701099583
:103670002B96CDBFDEBFDF91CF911F910F91FF90B1
:10368000EF90DF90CF90BF90AF909F908F90089574
:103690000F931F93CF93DF93EC018881998100975B
:1036A00059F02A813B812617370730F081E0DF91FE
:1036B000CF911F910F9108958B016F5F7F4F0E94F3
:1036C0007828009759F0888399830A831B832C817B
:1036D0003D81232B59F7FC011082E8CF80E0E7CF32
:1036E0001F920F920FB60F9211242F933F934F9377
:1036F0005F936F937F938F939F93AF93BF9340910B
:103700001F285091202860912128709122288091B3
:103710001D2890911E2820911B2830911C28420FB3
:10372000531F611D711D2091192830911A28820F95
:10373000931F883E23E0920730F0885E93404F5FEE
:103740005F4F6F4F7F4F80931D2890931E284093AB
:103750001F2850932028609321287093222880915D
:10376000272890912828A0912928B0912A280196ED
:10377000A11DB11D8093272890932828A093292864
:10378000B0932A2881E08093B60ABF91AF919F91B0
:103790008F917F916F915F914F913F912F910F90FA
:1037A0000FBE0F901F9018951F920F920FB60F9299
:1037B00011242F933F934F935F936F937F938F9336
:1037C0009F93AF93BF93EF93FF9386E798E20E9496
:1037D0008805FF91EF91BF91AF919F918F917F915C
:1037E0006F915F914F913F912F910F900FBE0F906E
:1037F0001F9018951F920F920FB60F9211242F93BE
:103800003F934F935F936F937F938F939F93AF9368
:10381000BF93EF93FF93E0918228F09183288181F9
:1038200081FD2FC06081809188288F5F8F73909178
:103830008928891741F0E0918828F0E0EA58F74D8F
:10384000618F8093882880910F299091102900978B
:1038500039F0DC01ED91FC910190F081E02D0995AA
:10386000FF91EF91BF91AF919F918F917F916F9158
:103870005F914F913F912F910F900FBE0F901F902E
:1038800018958081EDCFCF93DF9380912D29909172
:103890002E290E94EF27C0E5D9E2888199810097FF
:1038A00041F00E94EF271A821B82188219821C8223
:1038B0001D82269689E2CC38D80779F7DF91CF911F
:1038C00008950F931F93CF93DF93EEE6F8E280E025
:1038D00099E0ADE3B0E080839183A283B383148247
:1038E000158281E090E086839783ECE2F8E28FE72F
:1038F00093E980839183178281E0868391E29283AA
:1039000092E2948390E2938396E19583E6E7F8E26E
:103910001282138248EE53E060E070E044835583E6
:10392000668377832DE933E92083318320E638E00D
:10393000248735879AE196879BE1978790E4908B5F
:10394000128A138A148A158A96E2968B178A108E29
:1039500010920F2910921029E0E5F9E29CE3DF01B3
:103960001D929A95E9F7E1E1F9E200E513EC20E018
:1039700030E0008311832283338314821582E7E1D0
:10398000F9E212821382448355836683778329EC9C
:1039900033E9208331839FEF94878787C7E2D9E299
:1039A0001A821B828DEB93E98883998387EB93E9D5
:1039B0008B8F9C8F1D8E1E8E1F8E18A28FEF9FEFF8
:1039C0008FA398A7EC83FD831DA21EA280E091E047
:1039D0000E9453278E839F8380E091E08887998798
:1039E0008FE090E08A879B878C879D87DF91CF91BE
:1039F0001F910F910895CF93DF93CDB7DEB7AF97A7
:103A0000CDBFDEBF88ED90E084BF9093610080E081
:103A100094E2A4EFB0E08093032890930428A0934D
:103A20000528B093062880910206866080930206DE
:103A300080910006816080930006809102068F7C51
:103A4000809302068091A0008F788093A0008091DF
:103A500002068061809302061092E20581E0809365
:103A6000E40583E08093010A8FEF90E08093260ABB
:103A70009093270A80E890E08093380A9093390A5F
:103A800080933A0A90933B0A80933C0A90933D0AB4
:103A90008BE08093000A8091E50581608093E505C5
:103AA0008091E50582608093E505E0E8FAE037E083
:103AB0002FEF90E885E03183248795878083709687
:103AC000E03C4AE0F407B9F780E094E080932528D1
:103AD0009093262880912528909126282FEF30E07A
:103AE000B9010E9463266093232870932428809153
:103AF000252890912628E8EEF3E0BF010E94632676
:103B000060931B2870931C2880912528909126286B
:103B1000BF010E9463268093192890931A2820934E
:103B2000BC0A3093BD0A8091B50A81608093B50AC2
:103B300084E08093B00A8091B00A81608093B00ADB
:103B4000789461E070E08CE10E945B0661E070E0D7
:103B50008CE10E94BB0661E070E08DE10E945B0693
:103B600061E070E08DE10E94BB0661E070E083E2FD
:103B70000E945B0661E070E083E20E94BB0661E0A8
:103B800070E08EE10E945B0661E070E08EE10E94D1
:103B9000BB0640E855E260E070E086E798E20E94EC
:103BA000660C61E070E089E10E9469078EE394E9A8
:103BB0000E94D7146DE474E986E798E20E944615E6
:103BC00080912B28811102C00E94110D80E00E947B
:103BD000D00A0E943E0E62E081E10E940B0B40E0A1
:103BE00069E08DE494E90E94530B41E06AE087E5C7
:103BF00094E90E94530B0E948D0B0E948D0B0E9432
:103C00008D0B0E94FE0B80E00E94D00A0E943E0EA7
:103C10001BA21982CE0101967C01AC01BE016D5D33
:103C20007F4F81E10E94B40B892B11F48FEF8BA39E
:103C30000E94FE0B8BA18F3F41F10E9445084B0172
:103C40005C010E944508681979098A099B0900915D
:103C500011291091122920911329309114296017EC
:103C600071078207930788F4E0911529F0911629CE
:103C7000309709F0099564E670E080E090E00E94DA
:103C800015080E9442108330E0F26DE474E986E783
:103C900098E20E9446150E944210833059F08AE94A
:103CA00094E90E94D71464EF71E080E090E00E94F4
:103CB0001508F1CF82E694E90E94D7148DE694E9C5
:103CC00080934829909349298BE597E080934A296E
:103CD00090934B2981E599E1809340299093412964
:103CE0008CE090E00E9453276C0188E0D6011D9281
:103CF0008A95E9F78BE090E00E9453272BE0FC01C6
:103D000011922A95E9F7FC0131962AE0DF011D9214
:103D10002A95E9F7F60180879187BB24B394B3868F
:103D2000B28640E855E260E070E086E798E20E94E3
:103D3000660C84E695E00E94E51461E070E088E09E
:103D40000E945B0661E070E088E00E94BB0661E0D3
:103D500070E084E00E945B0661E070E085E00E9414
:103D60005B0661E070E086E00E945B0661E070E067
:103D700087E00E945B0661E070E084E00E94BB0681
:103D800061E070E085E00E94BB0661E070E086E0E3
:103D90000E94BB0661E070E087E00E94BB0664EF12
:103DA00071E080E090E00E9415088CE298E20E94A9
:103DB000BB0C80E4082F898382E48A838FE08B83A5
:103DC0001C8283E0482F8D831E8281E0682F8F83C1
:103DD000188612E42FE030E050E070E08CE298E2C8
:103DE0000E94640D87EF94E00E94E51481E098E062
:103DF0000E9403076AE070E080E090E00E941508EE
:103E000082E099E00E94030768EE73E080E090E0B2
:103E10000E94150864EF71E080E090E00E941508B0
:103E20008EE090E00E9453278C01D60118968D9168
:103E30009C91F801128213821482158210861186D9
:103E40001286138614861586B08224E02183868329
:103E5000978361E079E0C8010E94F314D8011396BA
:103E60008C93F60100831183D601ED91FC9183813F
:103E7000811120C060ED77E080E090E00E9415089D
:103E8000D6011896ED91FC91808181110CC0F6014C
:103E90000081118161E079E0C8010E94F314D8012A
:103EA00013968C93E1CF41E060E079E0C6010E9477
:103EB0008C16EDCF87E595E00E941E062AE041E0D2
:103EC00050E060E070E086E798E20E941C1489E30D
:103ED00095E00E94E51481E295E00E94E51464E615
:103EE00070E080E090E00E941508C0921728D09200
:103EF0001828F60162845601712C1CE5512E03E04E
:103F0000402E85E0382E93E0892E912C671409F419
:103F100059C0D5010D911D915D01F8018381882360
:103F2000C1F163E071E0C8010E94A60A68EE73E087
:103F300080E090E00E941508C8010E947A0A833050
:103F4000914179F168EE73E080E090E00E941508FD
:103F500060E171E0C8010E94A60A64E670E080E0BA
:103F600090E00E941508C8010E947A0A833121E17D
:103F70009207B9F0D8011696ED91FC91179730820F
:103F800012962C9130E02183328383829482858340
:103F900096837394472D60E071E0C6010E948C16F1
:103FA000B5CF8CE590E00E945327FC01252D11929E
:103FB0002A95E9F7D80118968D939C931997129634
:103FC0004C92E7CFF6018385882371F082E895E073
:103FD0000E941E0687EC95E00E941E066BE774E9BE
:103FE00086E798E20E9446156091092870910A2898
:103FF000072E000C880B990B0E94B224AB01BC0168
:1040000080911728909118280E942C1860910928F7
:1040100070910A28072E000C880B990B0E94B2247D
:10402000AB01BC0180911728909118280E942C1890
:104030000E94500381110BC26FE774E986E798E292
:104040000E944615B2E09B2E0E9450038111FFC1D1
:104050008CE994E90E94D71419A61AA61BA61CA6DF
:104060001DA61EA66CE070E0CE0189960E94481B3A
:1040700029A53AA58111D0C02115310519F0C90132
:104080000E94EF2719A61AA61DA61EA61BA61CA6EF
:104090000E9407241BA21CA21DA21EA21FA218A6DA
:1040A0002FEF3FEF40E050E00E94CF2520E1A70135
:1040B0000E946A24F70101900020E9F731978F01EF
:1040C0000E191F09B801CE0183960E94481B2BA12F
:1040D0003CA18111ABC02115310519F0C9010E9425
:1040E000EF271BA21CA21FA218A61DA21EA20BA195
:1040F0001CA10115110511F1CFA0D8A4C801C1144C
:10410000D104D1F08DA59EA5C80ED91EB601CE0151
:1041100089960E94481B882359F029A53AA58DA5A8
:104120009EA5B801820F931F0E945029CDA6DEA63E
:104130008BA19CA1009711F00E94EF274DA55EA5D1
:1041400069A57AA586E798E20E944B0A86E798E27D
:104150000E94E114C9A4DAA40E945003811118C17D
:1041600080912B2990912C29DC01ED91FC910688FE
:10417000F789E02D0995882309F45FC0E1E0F0E0BC
:10418000E0933529F093362987E0E8ECF2E9D7018E
:1041900001900D928A95E1F7D70185E090E02D918D
:1041A000E0912D29F0912E29E80FF91F2083019627
:1041B0008C309105A1F700912D2910912E29D8015D
:1041C0001C969C921C97809132291D968C931D976A
:1041D000809131291E968C93A0902F29B090302980
:1041E000B501C6010E945F244196A816B90608F0E1
:1041F0005BC080912B2990912C29DC01ED91FC91E1
:104200000488F589E02D099589A59AA5009709F4F8
:104210001BCF0E94EF2718CF8CE090E08DA79EA7C0
:104220006CEB74E9C9010E94502932CF0FA318A783
:10423000B701C9010E9450295ACF60914829709155
:10424000492980912B2990912C29DC01ED91FC9139
:1042500040914A2950914B296115710571F00088F0
:10426000F189E02D0995019709F488CFEEEFFFEF72
:10427000E0934E29F0934F29C7CF0684F785E02DB0
:10428000A7EB4A2EA3E95A2E49825A82009144296B
:104290001091452920914629309147290B831C8391
:1042A0002D833E83B701DECF4FE050E0B801C60159
:1042B0000E942E03AC014550510960912D29709147
:1042C0002E2980E10E9451080E94450860933729F9
:1042D000709338298093392990933A2960933B2928
:1042E00070933C2980933D2990933E2980912B29FE
:1042F00090912C29DC01ED91FC910084F185E02D59
:104300000995892B21F50E94450800913B291091C0
:104310003C2920913D2930913E292B013C01401A36
:10432000510A620A730A2091332930913429A8EE88
:10433000B3E00E9454264616570668067906B0F286
:10434000ECEFFFEFE0934E29F0934F2952CFCE01CF
:1043500083960E94FE08643071058105910509F07D
:1043600048CFE0912D29F0912E298381811161C0E0
:104370000E94450860933B2970933C2980933D2916
:1043800090933E2910923F2910924E2910924F2966
:1043900062E674E986E798E20E94461500912F29AB
:1043A00010913029B80189EC94E90E945F240996A4
:1043B00008171907B8F10E945003882399F18091DA
:1043C0003529909136290196D1F180933529909322
:1043D0003629E0912D29F0912E2980913629858367
:1043E000E0912D29F0912E298091352986836091C5
:1043F0002D2970912E2947E050E089EC94E90E9424
:104400002E03E0912D29F0912E29E80FF91F10823B
:10441000AC014450510960912D2970912E2982E8F8
:104420000E94510864E670E080E090E00E94150868
:10443000EBCE90E080934E2990934F29DACE44241E
:104440004394512C4092352950923629C2CF0E9474
:104450005003882309F44EC00E9445084B015C01BB
:104460002091312930913229A8EEB3E00E945426E0
:1044700000913B2910913C2920913D2930913E2902
:1044800024013501401A510A620A730A930182011C
:104490006017710782079307B0F0009137291091D8
:1044A00038292091392930913A2924013501401ABF
:1044B000510A620A730A9301820160177107820729
:1044C000930708F06EC080913F298823D9F16CEFE3
:1044D000662E77247A9460924E2970924F298091AB
:1044E0002B2990912C29DC01ED91FC910488F58910
:1044F000E02D0995209107283091082880910928FE
:1045000090910A28820F931F8093092890930A287C
:10451000009719F0803D974039F431952195310984
:10452000209307283093082868EE73E080E090E03D
:104530000E94150880E090E0892B09F467CD0E9465
:10454000000064CDE0912D29F0912E2980EC80832C
:10455000E0912D29F0912E29118280912B299091A3
:104560002C2960912D2970912E29DC01ED91FC916F
:104570000280F381E02D42E050E0099580923729D6
:1045800090923829A0923929B0923A2980923B29F9
:1045900090923C29A0923D29B0923E2981E08093DF
:1045A0003F2980912B2990912C29DC01ED91FC91E0
:1045B0000084F185E02D0995892B09F49BCFC70173
:1045C0000E94FE081B01672B09F4D2C080923B2990
:1045D00090923C29A0923D29B0923E29E0912D294C
:1045E000F0912E298081807F803309F0A0C08091D6
:1045F000402990914129892B09F47CCF298130E011
:10460000C90102968E0F9F1FDF01A20FB31F1196E3
:104610000C9110E0102F0027DC016C91060F111D8A
:104620002D5F3F4FBF01620F731FA8010E943E29FB
:10463000E98180912D2990912E29800F911FE80FFB
:10464000F92FF11D1282E0912D29F0912E29298157
:1046500030E0C90102968E0F9F1F408146704FA720
:104660006090402970904129423009F04EC0B80155
:10467000620F731FDF01A60FB71F1396CC9013971D
:10468000D12CDC2CCC2414964C91C40ED11C4BEFB5
:104690005FEF421B530B401B510B420D531D6B5FD1
:1046A0007F4F6E0F7F1FF3010995E0912D29F09147
:1046B0002E2980E48083E0912D29F0912E294FA4AA
:1046C0004182E0912D29F0912E29D282E0912D296D
:1046D000F0912E29C38280912B2990912C296091F1
:1046E0002D2970912E29DC01ED91FC910280F3813E
:1046F000E02D44E050E009958092372990923829C6
:10470000A0923929B0923A29F5CE4DEF5FEF421BC6
:10471000530B401B510B420D531D2D5F3F4F200F7C
:10472000311FBF01620F731FF3010995E3CE803C77
:10473000C9F480ED8083E0912D29F0912E2911821A
:1047400080912B2990912C2960912D2970912E29EF
:10475000DC01ED91FC910280F381E02D42E050E01C
:104760000995C8CE803D09F0C5CE10923F29C2CE32
:104770000E945003BFCE8F929F92AF92BF92CF9272
:10478000DF92EF92FF92CF93DF93EC016881798102
:104790008A819B81611571058105910521F464E28F
:1047A00079ED8BE597E02DE133EF41E050E00E9499
:1047B000CF2549015A019B01AC01A7EAB1E40E944F
:1047C000EE256B017C01ACEEB4EFA50194010E94D3
:1047D000FC25C60ED71EE81EF91EF7FE06C081E0B6
:1047E000C81AD108E10880E8F80AC882D982EA82AA
:1047F000FB82C701B6019F77DF91CF91FF90EF90C9
:10480000DF90CF90BF90AF909F908F9008958F9240
:104810009F92AF92BF92CF92DF92EF92FF92609100
:104820000B2870910C2880910D2890910E2861150D
:1048300071058105910521F464E279ED8BE597E03E
:104840002DE133EF41E050E00E94CF2549015A01AC
:104850009B01AC01A7EAB1E40E94EE256B017C014B
:10486000ACEEB4EFA50194010E94FC25C60ED71E44
:10487000E81EF91EF7FE06C081E0C81AD108E1085B
:1048800080E8F80AC0920B28D0920C28E0920D28FC
:10489000F0920E28C701B6019F77FF90EF90DF904E
:1048A000CF90BF90AF909F908F90089560930B280A
:1048B00070930C2880930D2890930E280895FC0186
:1048C0006150704001900110D8F7809590958E0F3F
:1048D0009F1F0895BB272A3051F4992342F4BDE26B
:1048E00090958095709561957F4F8F4F9F4F0C9459
:1048F0007A24BB27FA01A62F62177105810591055D
:10490000330B30FB66F0AA27660F771F881F991FAD
:10491000AA1FA21710F0A21B63953850A9F7A05D3B
:10492000AA3308F0A95DA19336F7B111B1931082B3
:10493000CA010C949B24DC01FC01672F7191772341
:10494000E1F7329704C07C916D9370836291AE174A
:10495000BF07C8F308950E94ED2408F481E008958C
:10496000E89409C097FB3EF4909580957095619509
:104970007F4F8F4F9F4F9923A9F0F92F96E9BB27BF
:104980009395F695879577956795B795F111F8CF3B
:10499000FAF4BB0F11F460FF1BC06F5F7F4F8F4FA6
:1049A0009F4F16C0882311F096E911C0772321F09C
:1049B0009EE8872F762F05C0662371F096E8862F34
:1049C00070E060E02AF09A95660F771F881FDAF78B
:1049D000880F9695879597F90895990F0008550FB8
:1049E000AA0BE0E8FEEF16161706E807F907C0F075
:1049F00012161306E407F50798F0621B730B840B7D
:104A0000950B39F40A2661F0232B242B252B21F456
:104A100008950A2609F4A140A6958FEF811D811DF6
:104A200008950E9424250C9495250E94872538F02E
:104A30000E948E2520F0952311F00C947E250C9475
:104A4000842511240C94C9250E94A62570F3959FF6
:104A5000C1F3950F50E0551F629FF001729FBB2775
:104A6000F00DB11D639FAA27F00DB11DAA1F649F11
:104A70006627B00DA11D661F829F2227B00DA11DC4
:104A8000621F739FB00DA11D621F839FA00D611D4A
:104A9000221F749F3327A00D611D231F849F600D6B
:104AA000211D822F762F6A2F11249F5750409AF094
:104AB000F1F088234AF0EE0FFF1FBB1F661F771F20
:104AC000881F91505040A9F79E3F510580F00C94EB
:104AD0007E250C94C9255F3FE4F3983ED4F3869578
:104AE00077956795B795F795E7959F5FC1F7FE2B8B
:104AF000880F911D9695879597F9089597F99F6767
:104B000080E870E060E008959FEF80EC0895002455
:104B10000A941616170618060906089500240A9422
:104B200012161306140605060895092E0394000CA8
:104B300011F4882352F0BB0F40F4BF2B11F460FF37
:104B400004C06F5F7F4F8F4F9F4F089557FD905860
:104B5000440F551F59F05F3F71F04795880F97FB41
:104B6000991F61F09F3F79F08795089512161306FB
:104B70001406551FF2CF4695F1DF08C0161617062A
:104B80001806991FF1CF869571056105089408955F
:104B9000E894BB2766277727CB0197F90895052E60
:104BA00097FB1EF400940E94E62557FD07D00E9453
:104BB000322607FC03D04EF40C94E6255095409520
:104BC000309521953F4F4F4F5F4F089590958095B9
:104BD000709561957F4F8F4F9F4F08950E94542687
:104BE000A59F900DB49F900DA49F800D911D112441
:104BF0000895B7FF0C94EE250E94EE25821B930BBF
:104C000008952F923F924F925F926F927F928F9270
:104C10009F92AF92BF92CF92DF92EF92FF920F934B
:104C20001F93CF93DF93CDB7DEB7CA1BDB0BCDBF8E
:104C3000DEBF09942A88398848885F846E847D8421
:104C40008C849B84AA84B984C884DF80EE80FD8034
:104C50000C811B81AA81B981CE0FD11DCDBFDEBFD2
:104C6000ED010895A1E21A2EAA1BBB1BFD010DC088
:104C7000AA1FBB1FEE1FFF1FA217B307E407F5070C
:104C800020F0A21BB30BE40BF50B661F771F881FE8
:104C9000991F1A9469F760957095809590959B017E
:104CA000AC01BD01CF010895A29FB001B39FC00127
:104CB000A39F700D811D1124911DB29F700D811D48
:104CC0001124911D0895AA1BBB1B51E107C0AA1F07
:104CD000BB1FA617B70710F0A61BB70B881F991F9D
:104CE0005A95A9F780959095BC01CD010895EE0FD6
:104CF000FF1F0590F491E02D099497FD1094002E6C
:104D0000083098F00850232F342F452F562F672F47
:104D1000782F892F912DF4CF1594979587957795B6
:104D2000679557954795379527950A95AAF71124C2
:104D3000002D08950024A7FD00942A173005400592
:104D40005005600570058005900508955058BB27F3
:104D5000AA270E94BE260C9495250E94872538F02C
:104D60000E948E2520F039F49F3F19F426F40C940C
:104D700084250EF4E095E7FB0C947E25E92F0E9434
:104D8000A62558F3BA17620773078407950720F022
:104D900079F4A6F50C94C8250EF4E0950B2EBA2FE5
:104DA000A02D0B01B90190010C01CA01A001112431
:104DB000FF27591B99F0593F50F4503E68F11A16DD
:104DC000F040A22F232F342F4427585FF3CF46956E
:104DD00037952795A795F0405395C9F77EF41F1690
:104DE000BA0B620B730B840BBAF09150A1F0FF0F5A
:104DF000BB1F661F771F881FC2F70EC0BA0F621F46
:104E0000731F841F48F4879577956795B795F79535
:104E10009E3F08F0B0CF9395880F08F09927EE0FCA
:104E20009795879508950E941A276894B1110C945C
:104E3000C92508950E94AE2588F09F5798F0B92F94
:104E40009927B751B0F0E1F0660F771F881F991FBF
:104E50001AF0BA95C9F714C0B13091F00E94C82574
:104E6000B1E008950C94C825672F782F8827B85F84
:104E700039F0B93FCCF3869577956795B395D9F717
:104E80003EF490958095709561957F4F8F4F9F4F21
:104E900008950E94ED2408F48FEF08950E94ED24F8
:104EA000880B990B08950F931F93CF93DF93823054
:104EB000910510F482E090E0E0918E29F0918F2925
:104EC00030E020E0B0E0A0E0309799F42115310502
:104ED00009F44AC0281B390B24303105D8F58A81E2
:104EE0009B816115710589F1FB0182839383FE012A
:104EF00011C0408151810281138148175907E0F0A8
:104F00004817590799F4109761F012960C9312976D
:104F100013961C933296CF01DF91CF911F910F9181
:104F2000089500938E2910938F29F4CF2115310510
:104F300051F04217530738F0A901DB019A01BD0176
:104F4000DF01F801C1CFEF01F9CF80938E29909353
:104F50008F29CDCFFE01E20FF31F81939193225051
:104F6000310928833983D7CF20918C2930918D291D
:104F7000232B41F4209111283091122820938C2961
:104F800030938D2920910F2830911028211531055B
:104F900041F42DB73EB74091132850911428241B9B
:104FA000350BE0918C29F0918D29E217F307A0F4DD
:104FB0002E1B3F0B2817390778F0AC014E5F5F4F6F
:104FC0002417350748F04E0F5F1F40938C295093EC
:104FD0008D29819391939FCFF0E0E0E09CCFCF9318
:104FE000DF930097E9F0FC01329712821382A091BF
:104FF0008E29B0918F29ED0130E020E01097A1F4C7
:1050000020813181820F931F20918C2930918D292D
:105010002817390709F061C0E0938C29F0938D2996
:10502000DF91CF910895EA01CE17DF07E8F54A81B5
:105030005B819E0141155105B1F7E901EA83FB83CC
:1050400049915991C40FD51FEC17FD0761F4808178
:1050500091810296840F951FE9018883998382814B
:1050600093818A839B83F0E0E0E012968D919C917E
:1050700013970097B9F52D913C911197CD010296A8
:10508000820F931F20918C2930918D292817390781
:1050900039F6309751F510928E2910928F29A093EE
:1050A0008C29B0938D29BCCFC283D3834081518199
:1050B000840F951FC817D90761F44E5F5F4F888131
:1050C0009981480F591F408351838A819B81828334
:1050D00093832115310509F0B0CFE0938E29F09329
:1050E0008F299ECFFD01DC01C0CF12821382D7CF62
:1050F000B0E0A0E0EEE7F8E20C9403268C01009704
:1051000051F4CB010E9453278C01C801CDB7DEB703
:10511000E0E10C941C26FC01E60FF71F9C012250D5
:105120003109E217F30708F49DC0D901CD91DC9154
:105130001197C617D70798F0C530D10530F3CE01C7
:1051400004978617970708F3C61BD70B2297C193BE
:10515000D1936D937C93CF010E94EF27D6CF5B0153
:10516000AC1ABD0A4C018C0E9D1EA0918E29B091E7
:105170008F29512C412CF12CE12C109731F5809185
:105180008C2990918D298815990509F05CC04616E7
:10519000570608F058C080910F289091102800976A
:1051A00041F48DB79EB74091132850911428841B69
:1051B000950BE817F90708F055C0E0938C29F09398
:1051C0008D29F90160837183A0CF8D919C911197F6
:1051D00012966C90129713967C901397A815B905A8
:1051E00059F56C0142E0C40ED11CCA14DB0420F155
:1051F000AC014A195B09DA011296159780F06282B8
:10520000738240835183D9016D937C93E114F1043F
:1052100071F0D7011296ED93FC93139776CF2296F7
:105220008C0F9D1FF90180839183F301EFCFE093F1
:105230008E29F0938F2969CF4816590608F42C015E
:105240007D01D3019ACFCB010E9453277C010097A7
:1052500049F0AE01B8010E943529C8010E94EF272C
:10526000870153CF10E000E050CFFB01DC0102C00A
:1052700001900D9241505040D8F708956817790772
:1052800068F4FB01DC01E40FF51FA40FB51F02C099
:1052900002900E9241505040D8F708950C94352951
:1052A000FB01DC0101900D920020E1F7089513E06D
:1052B000C3E0D3E004C0FE010E9477262196C430EB
:0852C000D107C9F7F894FFCFF4
:1052C80000044D51545404D094DB94E0947B940032
:1052D80000000300010200000101000000000000BE
:1052E80000000000000000000000000000000000B6
:1052F800000000000000000005040005060204018B
:105308000300010001020001020304050203030572
:10531800040605040607030700010202030001074B
:105328000602020005020105000401010404040349
:10533800030303030300000200000301010000014E
:10534800020202020505050503052010012040049C
:1053580010020801020102040102040810200408D6
:105368000820104020104080088001020404080131
:105378000280400000000088036F0CD803A903894D
:1053880003DC048B04640DE2032C052605BB0C1E0C
:105398000500000000CD054B0A32053906630541BA
:1053A800055505660C6E076F05780A000000008D2C
:1053B80014000000004A0C2A0C630C620C00000068
:1053C80000140C6E13630C100C3810F50F1B10270B
:1053D80016831AF00FDB126112080CC2151E1A5D33
:1053E80015B9190212110C291105110D0A004E6F79
:1053F80020536F636B657420617661696C61626CC0
:1054080065006E616E00696E66006F7666004D65B8
:105418007373616765205265636569657665643A8B
:105428002000526563696576656420526561646928
:105438006E67203A2000436F6E6E656374696E670D
:1054480020746F20004F6666696365426179004188
:1054580061726F6E654031323300436F6E6E656303
:105468007465642E003139322E3136382E302E31A3
:10547800303300464F4300436F6E6E656374696E48
:105488006720746F204D5154542042726F6B6572BF
:105498002E2E2E005265636F6E6E656374696E679B
:1054A80020746F204D5154542042726F6B65722ED8
:1054B8002E3A20004553503332436C69656E742D83
:1054C800006D6F746F723100426F6F746C6F61643E
:0D54D80065720042454D460048616C6C0055
:1054E500050A070024F4006400E803010000000039
:0654F50000902980000078
:0400000300000200F7
:00000001FF
